:100000005BC075C074C074C072C071C070C06FC076
:100010006EC06DC06CC06BC06AC069C068C067C08C
:1000200066C065C064C063C000C201000300150063
:100030001500120000E1000014002B002B00290025
:10004000009600002500490049004600127A000091
:100050002D00590059005800807000002E006200E9
:1000600062005F00004B0000470094009400910084
:10007000403800006000C500C500C20080250000B7
:100080009200290129012601C01200002801530213
:1000900053025002600900005002A504A504A20406
:1000A000B0040000A3044B094B0948092C010000CF
:1000B000971233253325302511241FBECFEFD2E010
:1000C000DEBFCDBF11E0A0E0B1E0E2E2F7E002C0A8
:1000D00005900D92A03EB107D9F722E0A0EEB1E065
:1000E00001C01D92AC3AB207E1F7E7D218C388CF3E
:1000F0001F920F920FB60F9211242F933F934F939D
:100100005F938F939F93EF93FF9383B1382F387052
:1001100083FD78C08091E8019091E901232F019738
:100120002FEF8F3F9207D9F78091E6019091E70179
:10013000FC01232F31972FEFEF3FF207D9F723B1BF
:1001400023FB222720F9FC0131973FEFEF3FF30714
:10015000D9F71B992260FC0130E031973FEFEF3F68
:10016000F307D9F71B992460FC0130E031973FEF8A
:10017000EF3FF307D9F71B992860FC0130E0319776
:100180003FEFEF3FF307D9F71B992061FC0130E007
:1001900031973FEFEF3FF307D9F71B992062FC013E
:1001A00030E031973FEFEF3FF307D9F71B99206419
:1001B00030E001973FEF8F3F9307D9F71B992068F5
:1001C0008091E4019091E50130E001973FEF8F3F8E
:1001D0009307D9F78091EB014091EA0190E00196F5
:1001E0008F73992750E084179507C9F0E091EB01D0
:1001F000F0E0E451FE4F20838091EB018F5F8F731D
:100200008093EB01FF91EF919F918F915F914F91BF
:100210003F912F910F900FBE0F901F90189581E086
:1002200090E09093E1018093E001ECCF0F931F9356
:100230001092EB011092EA011092E1011092E0019C
:10024000249A239825B1286125B9E8E2F0E00591C8
:10025000159125913491601771078207930709F46E
:1002600087C0E4E3F0E00591159125913491601782
:1002700071078207930709F4C2C0E0E4F0E005913A
:10028000159125913491601771078207930709F43E
:10029000B9C0ECE4F0E00591159125913491601717
:1002A00071078207930709F4B0C0E8E5F0E0059113
:1002B000159125913491601771078207930709F40E
:1002C000A7C0E4E6F0E005911591259134916017FF
:1002D00071078207930709F49EC0E0E7F0E00591FB
:1002E000159125913491601771078207930709F4DE
:1002F00095C0ECE7F0E005911591259134916017D8
:1003000071078207930709F48CC0E8E8F0E00591D3
:10031000159125913491601771078207930709F4AD
:1003200083C0E4E9F0E005911591259134916017BF
:1003300071078207930709F47AC0E0EAF0E00591BB
:10034000159125913491601771078207930709F47D
:1003500071C0ECEAF0E005911591259134910617F2
:1003600017072807390709F468C01F910F910895EE
:1003700080E090E0FC01EE0FFF1F8E0F9F1F880FA3
:10038000991F880F991FFC01E45DFF4F259134915F
:100390003093E9012093E801FC01E25DFF4F2591D4
:1003A00034913093E7012093E601FC01E05DFF4FBB
:1003B000259134913093E5012093E401FC01EE5C3A
:1003C000FF4F859194919093E3018093E201809196
:1003D000680081608093680080916B0088608093E2
:1003E0006B008091E2019091E30120E001972FEFF3
:1003F0008F3F9207D9F778941F910F91089581E06C
:1004000090E0B8CF82E090E0B5CF83E090E0B2CF4B
:1004100084E090E0AFCF85E090E0ACCF86E090E064
:10042000A9CF87E090E0A6CF88E090E0A3CF89E055
:1004300090E0A0CF8AE090E09DCF8BE090E09ACF53
:1004400010926B0008959091EA018091EB0198174A
:1004500071F0E091EA01F0E0E451FE4F808190916B
:10046000EA019F5F9F739093EA0190E008958FEFF8
:100470009FEF08958091EB012091EA0190E0805C6C
:100480009F4F821B91098F73992708958091E001F6
:100490001092E1011092E00108952091E201309163
:1004A000E3012115310509F485C02FB7F8942C9884
:1004B000E091E201F091E301369630E031973FEFB1
:1004C000EF3FF307D9F780FD77C02C98E091E20168
:1004D000F091E30130E031973FEFEF3FF307D9F7B9
:1004E00081FD78C02C98E091E201F091E30130E0C9
:1004F00031973FEFEF3FF307D9F782FD69C02C98A2
:10050000E091E201F091E30130E031973FEFEF3FFE
:10051000F307D9F783FD5AC02C98E091E201F091DE
:10052000E30130E031973FEFEF3FF307D9F784FD68
:100530004BC02C98E091E201F091E30130E031975B
:100540003FEFEF3FF307D9F785FD3CC02C98E091D2
:10055000E201F091E30130E031973FEFEF3FF30725
:10056000D9F786FD2DC02C98E091E201F091E301CE
:1005700030E031973FEFEF3FF307D9F787FF1EC019
:100580002C9A8091E2019091E30130E0432F019792
:100590004FEF8F3F9407D9F72C9A2FBF8091E2013C
:1005A0009091E301232F01972FEF8F3F9207D9F707
:1005B00021E030E0C90108952C9A88CF2C98E1CF32
:1005C0002C9AD2CF2C9AC3CF2C9AB4CF2C9AA5CFE9
:1005D0002C9A96CF2C9A87CF8FB7F8941092EB0174
:1005E0001092EA018FBF08959091EA018091EB018A
:1005F000981751F0E091EA01F0E0E451FE4F80815C
:10060000082E000C990B08958FEF9FEF0895CF935C
:10061000DF9300D000D000D0CDB7DEB749835A8336
:100620006B837C838D839E83E981FA818081022E96
:10063000000C330B0D8002C0220F331F0A94E2F727
:10064000282B208326960FB6F894DEBF0FBECDBFB1
:10065000DF91CF910895CF93DF9300D000D000D0E9
:10066000CDB7DEB749835A836B837C838D839E83AA
:10067000EB81FC8121303105C1F0232B69F44081ED
:1006800021E030E0B90102C0660F771F8A95E2F7DA
:10069000CB0180958423808326960FB6F894DEBF25
:1006A0000FBECDBFDF91CF910895908101C0220F81
:1006B0008A95EAF7292B2083EFCF21E040910201B0
:1006C0005091030160910401709105018091060130
:1006D000909107019CDF60E875E280E090E0A6DD84
:1006E000E0900201F09003010091040110910501D6
:1006F000D0910601C0910701BDDE892BE9F321E00D
:1007000030E0A701B8018D2F9C2FA5DF9CDEC5DE50
:100710008FE493EC0197F1F700C00000EDCFF8945F
:02072000FFCF09
:1007220006002A002B0000002400250002002400FD
:10073200250001002D002E0001002D002E000000DA
:100742002A002B0005002A002B00040027002800A5
:1007520003002700280002002700280001002700CC
:10076200280000002A002B0007002A002B000500A9
:100772002A002B000400270028000300270028007D
:1007820002002700280001002700280000002D0099
:100792002E0001002D002E0000002D002E0003006F
:1007A2002D002E0002002400250007002400250051
:1007B2000500240025000400240025000300240075
:1007C200250002002400250001002400250000006D
:1007D2002A002B0007002A002B0006002A002B000B
:1007E20005002A002B0004002A002B0003002A0027
:1007F2002B0002002A002B0001002A002B0000001F
:00000001FF
